S01D000050726F6A6563745F46616E5F4F4F505F46494E414C2E73726563A6
S113000045C0000062C0000060C00000B1C0000034
S11300105CC000005AC0000058C0000056C0000078
S113002054C000007EC0000050C000004EC000005C
S11300304CC000004AC0000048C0000046C0000098
S113004045C0000042C00000BBC000003EC000002C
S11300503CC000003AC0000038C0000036C00000B8
S113006034C0000032C0000030C000002EC00000C8
S11300702CC000002AC0000028C0000026C00000D8
S113008024C0000022C0000020C0000011241FBEB4
S1130090CFEFD0E1DEBFCDBF12E0A0E0B1E0E8E7F2
S11300A0F2E200E00BBF02C007900D92A039B10745
S11300B0D9F723E0A0E9B2E001C01D92A33CB20746
S11300C0E1F70E94C00B0C943A119ACF1F920F9241
S11300D00FB60F9211240BB60F922F933F934F93A9
S11300E05F936F937F938F939F93AF93BF93EF939C
S11300F0FF930E94AC0981D782E882BFFF91EF9100
S1130100BF91AF919F918F917F916F915F914F912B
S11301103F912F910F900BBE0F900FBE0F901F9029
S113012018951F920F920FB60F9211240BB60F92CF
S11301302F933F934F935F936F937F938F939F93EB
S1130140AF93BF93EF93FF930DD7FF91EF91BF91BF
S1130150AF919F918F917F916F915F914F913F915B
S11301602F910F900BBE0F900FBE0F901F901895FC
S11301701F920F920FB60F9211240BB60F922F936A
S11301803F934F935F936F937F938F939F93AF931B
S1130190BF93EF93FF930E94B20BFF91EF91BF9136
S11301A0AF919F918F917F916F915F914F913F910B
S11301B02F910F900BBE0F900FBE0F901F901895AC
S11301C01F920F920FB60F9211240BB60F922F931A
S11301D03F934F935F936F937F938F939F93AF93CB
S11301E0BF93EF93FF930E945A0CFF91EF91BF913D
S11301F0AF919F918F917F916F915F914F913F91BB
S11302002F910F900BBE0F900FBE0F901F9018955B
S11302109AD115D0A0D5F1D58CD20E94450C0E945C
S11302204E0C80E091E09093C0038093BF037894D8
S1130230089557D18BD19DD596D332C4089520E02B
S113024049E350E06AE370E08EEA92E0F3D621E0FD
S113025049E350E06AE370E08CEB92E0EBD622E0F5
S113026049E350E06AE370E087EA92E0E3D623E0F2
S113027049E350E06AE370E084EB92E0DBD680E08F
S113028017D280E021D280E019D280E03DD281E013
S113029041D281E04BD281E005C208950CD2809313
S11302A0BB02813009F120F0823009F437C008958F
S11302B08CEB92E0CCD6823041F481E08093BB0297
S11302C0FDD11092AD0280E0EDD18EEA92E0BFD66E
S11302D0823009F03DC01092A40280E0E9D110926E
S11302E0AD0280E0DFC108958CEB92E0B0D682309D
S11302F039F48093BB02E2D11092AD0280E0D2D1F6
S11303008EEA92E0A4D6823019F51092A40280E01D
S1130310CFD11092AD0280E0C5C108958CEB92E07C
S113032096D6823041F41092BB0280E0C7D110927D
S1130330AD0280E0B7D18EEA92E089D6823041F4F2
S11303401092A40280E0B4D11092AD0280E0AAC160
S11303500895D7D18093A502882319F0813079F0CC
S1130360089584EB92E073D6823089F481E080931F
S1130370A502CAD11092AD0280E094C108951092F2
S1130380A50280E0C1D11092BA0280E0C3C10895F1
S113039098D18093C202C7D18093A6028091C202F1
S11303A0813091F120F0823009F46EC0089576DF37
S11303B087EA92E04CD6823061F481E08093C202F5
S11303C083D11092AD0280E06DD11092A60280E03C
S11303D0ADD184EB92E03BD6823039F48093C202F3
S11303E073D11092AD0280E05DD18EEA92E02FD6F7
S11303F0823009F075C01092A40280E059D11092A5
S1130400AD0280E04FC108958CEB92E020D682309B
S113041041F41092C20280E057D11092AD0280E004
S113042041D184EB92E013D6823039F48093C20236
S11304304BD11092AD0280E035D187EA92E007D625
S1130440823099F41092AD0280E02CD18091A60202
S113045090E0019681709078992324F401978E6F2F
S11304609F6F01968093A60261D18EEA92E0EFD548
S1130470823009F035C01092A40280E019D11092A4
S1130480AD0280E00FC1089564DF8CEB92E0DFD50C
S1130490823041F41092C20280E016D11092AD0273
S11304A080E000D187EA92E0D2D5823061F481E025
S11304B08093C20209D11092AD0280E0F3D0109271
S11304C0A60280E033D18EEA92E0C1D5823041F4B5
S11304D01092A40280E0ECD01092AD0280E0E2C061
S11304E00895E3D08093A4021ED18093A602809144
S11304F0A402882319F0813099F008958EEA92E0DD
S1130500A6D58230F9F481E08093A402D1D0109270
S1130510AD0280E0C7D01092A60280E007C1089522
S113052037DF8EEA92E093D5823061F41092A40210
S113053080E0BED01092AD0280E0B4D081E0809320
S1130540A602F4C008950C947A0C0895CF93DF9317
S1130550ACD08093A402B5D08093C202ACD0809377
S1130560BB02CFD08093A502DED08093A6020E9466
S11305708C0C882309F490C00E948F0C0E94920C6A
S1130580EC016AE171E00E94260E892B49F481E0B6
S11305908093A4028DD01092A60280E0C7D07CC0C4
S11305A06CE271E0CE010E94260E892B49F4109270
S11305B0A40280E07DD081E08093A602B7D06CC015
S11305C06FE371E0CE010E94260E892B51F4109244
S11305D0C2021092BB0280E077D08091BB026ED041
S11305E05BC067E571E0CE010E94260E892B59F4A9
S11305F01092C20281E08093BB0280E065D08091BA
S1130600BB025CD049C061E771E0CE010E94260EB6
S1130610892B59F41092C20282E08093BB0280E0DD
S113062053D08091BB024AD037C069E871E0CE0153
S11306300E94260E892BA1F481E08093C20244D04B
S11306408091A60290E0019681709078992324F419
S113065001978E6F9F6F01968093A60267D01CC08E
S113066064E971E0CE010E94260E892B51F482E0E8
S11306708093C2021092A50227D08091A50244D093
S11306800BC060EA71E0CE010E94260E892B21F492
S113069081E08093A50238D0DF91CF9108958091B5
S11306A0C30208958093C30208958091C4020895FB
S11306B08093C40208958091C50208958093C50271
S11306C008958091C60208958093C602089580918A
S11306D0C90208958091CA0208958091CB020895B9
S11306E08091C7029091C80208958093C9026093D3
S11306F0CA024093CB0208959093C8028093C70224
S113070008958091CC0208958093CC02089580913D
S1130710CD0208958093CD0208958091CE0208956C
S11307208093CE0208958091A60208958093A60234
S11307300895C5D470D624D7A7C40895CF92DF9264
S1130740EF92FF92ACDF8093AD026BD46B017C011E
S11307508091AD02811124C0AAD482E0A1D48091F9
S1130760900290919102A0919202B0919302A701FC
S11307709601281B390B4A0B5B0BDA01C9018C3239
S11307809140A105B105C8F0C0929002D0929102A7
S1130790E0929202F092930281E08093AD0282DFB4
S11307A08091AD02813049F4C0929002D0929102BE
S11307B0E0929202F09293027ED4FF90EF90DF9049
S11307C0CF90089578DF8093BB028130E1F018F078
S11307D0823089F108956BE272E08BE093E00E942D
S11307E0260E892B09F06DD68BE0EBE2F2E0ABE04C
S11307F0B3E001900D928A95E1F74BE053E063E09A
S113080080E056C6089562E472E08BE093E00E94B3
S1130810260E892B09F055D68DE0E2E4F2E0ABE038
S1130820B3E001900D928A95E1F74BE053E062E06A
S113083080E03EC608956BE572E08BE093E00E9491
S1130840260E892B09F03DD68BE0EBE5F2E0ABE018
S1130850B3E001900D928A95E1F74BE053E063E039
S113086080E026C608953CDF32DF34DF36DF1DDF4B
S11308708093A40226DF8093C202813019F138F0FC
S1130880823009F43AC0833009F452C0089565EB0C
S113089071E089E293E00E94260E892B09F0CBD601
S11308A087E0E5EBF1E0A9E2B3E001900D928A95CF
S11308B0E1F749E253E065E070E081E090E0B2D610
S11308C081CF08956CEB71E089E293E00E94260EDB
S11308D0892B11F0B0D6F5D585E0ECEBF1E0A9E277
S11308E0B3E001900D928A95E1F749E253E066E0A6
S11308F070E081E090E096C6089561EC71E089E2D1
S113090093E00E94260E892B11F095D6DAD586E065
S1130910E1ECF1E0A9E2B3E001900D928A95E1F7F0
S113092049E253E065E070E081E090E07BC6089521
S113093067EC71E089E293E00E94260E892B11F0A6
S11309407AD6BFD588E0E7ECF1E0A9E2B3E0019004
S11309500D928A95E1F749E253E066E070E081E0A8
S113096090E060C60895FF920F931F93CF93DF9397
S1130970B7DEEC01ACDE182FADDE082FAEDEF82EAC
S113098094DE8093A402CFDE8093A602D7DE80910A
S1130990A6028130E1F46FEC71E08FEC92E00E94EA
S11309A0260E892B11F047D68CD58EE0EFECF1E0C2
S11309B0AFECB2E001900D928A95E1F74FEC52E072
S11309C061E070E080E090E02DD6CE01C0D480914B
S11309D0A60281111CC06DED71E08FEC92E00E94C3
S11309E0260E892B11F027D66CD580E1EDEDF1E0D0
S11309F0AFECB2E001900D928A95E1F74FEC52E032
S1130A0061E070E080E090E00DD6CE01A0D480914A
S1130A10A402882319F08130F9F03CC06BE172E044
S1130A2089E293E00E94260E892B11F004D649D561
S1130A30E9E2F3E08FE496E49183808386E490E036
S1130A4093838283AF0167E070E081E090E0EAD5B0
S1130A5082E390E0F3D51EC01F92FF921F920F9382
S1130A601F921F938DEE91E09F938F938DEE92E0F2
S1130A709F938F930E945F0E4DEE52E064E081E0FD
S1130A8017D5F1DE8DB79EB70A960FB6F8949EBFC0
S1130A900FBE8DBFDF91CF911F910F91FF900895ED
S1130AA0CF93DF9302DE8093A4020BDE8093C20215
S1130AB002DE8093BB0225DE8093A50233D7EC01CE
S1130AC06AE171E00E94260E892B51F48091A40200
S1130AD0813009F075C08CEF91E00E942F0E70C038
S1130AE06CE271E0CE010E94260E892B49F48091BC
S1130AF0A402811165C08DE092E00E942F0E60C0B7
S1130B006FE371E0CE010E94260E892B49F4809197
S1130B10BB02811155C08FE192E00E942F0E50C09C
S1130B2067E571E0CE010E94260E892B51F4809175
S1130B30BB02813009F044C086E392E00E942F0E8C
S1130B403FC061E771E0CE010E94260E892B49F473
S1130B508091BB028230A1F58FE492E00E942F0EB7
S1130B602FC069E871E0CE010E94260E892B49F45A
S1130B708091C202813021F586E692E00E942F0E18
S1130B801FC064E971E0CE010E94260E892B49F44E
S1130B908091C2028230A1F480E792E00E942F0E7D
S1130BA00FC060EA71E0CE010E94260E892B41F449
S1130BB08091A502813021F48BE792E00E942F0EF0
S1130BC0DF91CF9108950F931F932BD26093470326
S1130BD0709348038093490390934A0360910E01F4
S1130BE070E080E090E0CFD620E030E040E05FE3CA
S1130BF02ED79BD688EE93E039D580914703909108
S1130C004803A0914903B0914A0340919402509142
S1130C10950260919602709197028C019D01041BCC
S1130C20150B260B370BB901A801483E534061054B
S1130C30710590F08093940290939502A09396028C
S1130C40B093970280910E018F5F80930E018930DB
S1130C5018F082E080930E011F910F9108952DD515
S1130C6010924C0381E080934B038093A60281B3DE
S1130C708F7E81BB0895CF92DF92EF92FF920F9304
S1130C801F9330D5CED100919802109199022091F2
S1130C909A0230919B026B017C01C01AD10AE20ACC
S1130CA0F30A97018601043611052105310508F47C
S1130CB04BC0609398027093990280939A02909328
S1130CC09B0249D5892B09F43FC057D537D580936A
S1130CD04C0323DD80934B0390914C039B3088F4A9
S1130CE0813079F42091A60221110BC083E0ECDC61
S1130CF010924B0380E014DD60E482E390E0A1D421
S1130D0023C09B3060F081110AC02091A6022111FA
S1130D1006C0DADC81E080934B0302DD15C025EFC9
S1130D20290F243158F4813049F48091A6028111AD
S1130D3005C060E282E390E084D406C09F3120F0D5
S1130D4060E182E390E07DD41F910F91FF90EF90DA
S1130D50DF90CF90089577D482CF0895A8D480E00F
S1130D60B3DC80E0ABDC80E0CFDC81E0D3DC45C0E9
S1130D7008959BDC882319F0813019F00895EECF93
S1130D80089579DF8ED417C0089595DC813049F039
S1130D9018F0823059F0089564E088EE93E066C458
S1130DA0089563E088EE93E061C4089561E088EEFD
S1130DB093E05CC40895CF9384DCC82FA8DCC130D1
S1130DC059F028F0C23069F0C33081F014C08111A9
S1130DD001C059D0DADF0FC0811101C054D0F3DE55
S1130DE00AC0811101C04FD022D005C0811101C0B9
S1130DF04AD05DD440DFCF910895109254031092ED
S1130E004F031092500310924E0310924D03109210
S1130E105303109252031092510381E07BDC40E0B3
S1130E2060E080E062DC80E090E066CC0895CF93DF
S1130E30DF9367DC813021F580914F0390E04E967B
S1130E406CE370E0A3D6282F80934F038E3148F4CF
S1130E508091500390E0019668E170E097D680930A
S1130E60500340915403C42FD0E084E6289FC00D62
S1130E70D11D1124622F8091500337DCCE013CDC5C
S1130E80DF91CF910895CF93DF9380915003909198
S1130E90510389130FC020914F03909152032913DA
S1130EA009C02091540390915303291303C080E097
S1130EB0FFDB55C090914F03911109C0882339F08D
S1130EC09BE390934F0381508093500348C020913B
S1130ED05403211107C08BE38093540391509093E2
S1130EE04F033DC0883078F081E014DC1092540345
S1130EF010924F0310925003109251031092520318
S1130F00109253032CC080914D0390914E03853F62
S1130F10914010F4EDD001C0EFD060914F032091C7
S1130F205203862F90E0821B910934E6389FF0012A
S1130F30399FF00D11244091540380915303C42F21
S1130F40D0E0C81BD109CE0FDF1F481B621B809164
S1130F50500390915103891BC8DBCE01CDDBDF9197
S1130F60CF910895D4DB811147C040914D03509136
S1130F704E034F5F5F4F9A01369527953695279517
S1130F8036952795A5ECB0E230D6929582958F7070
S1130F9089279F70892768EE73E0869F9001879F59
S1130FA0300D969F300D1124CA01821B930B909330
S1130FB04E0380934D03892BF9F48091530390E001
S1130FC001966CE370E0E2D580935303811114C061
S1130FD08091520390E001966CE370E0D7D5809342
S1130FE05203811109C08091510390E0019668E198
S1130FF070E0CCD580935103089580919C02909128
S11310009D02A0919E02B0919F020196A11DB11D67
S113101080939C0290939D02A0939E02B0939F02A2
S1131020089560919C0270919D0280919E0290911E
S11310309F020895FC01CB01718360835383428333
S1131040248331E0358340E0622FA8C30895CF9311
S1131050DF93EC016C818A819B81D7D3811106C017
S11310609D81913019F41D8282E00BC0882331F0F8
S11310708D81811105C081E08D8303C080E001C0B2
S113108080E0DF91CF91089541E064E087E390E050
S113109085D383B7846083BF83B7886483BF08958F
S11310A0682F70E08FEF90E071D561BF089583B72A
S11310B0806283BF089583B78F7C83BF089541E026
S11310C067E082E290E06AD341E066E082E290E089
S11310D065D341E065E082E290E060D341E064E002
S11310E082E290E05BD361E081E690E04EC3089534
S11310F081E08093550308951092550308950F934A
S11311001F93CF93DF93CDB7DEB72B970FB6F89429
S1131110DEBF0FBECDBF8C018BE0EFE0F1E0DE015E
S1131120119601900D928A95E1F78091A00290E0CA
S1131130019665E070E02AD58093A00241E067E063
S113114083E290E048D341E066E083E290E043D359
S113115041E065E083E290E03ED341E064E083E275
S113116090E039D38091A002823009F47AC030F43F
S1131170882359F0813009F441C0DEC0833009F47A
S1131180A1C0843009F4C6C0D7C09801369527950C
S11311903695279536952795A5ECB0E226D5AC0172
S11311A0529542954F7045275F7045279A01ADECE3
S11311B0BCEC1BD5969587959695879596958795BE
S11311C09C01220F331F880F991F880F991F880FC6
S11311D0991F820F931F9A01281B390BE1E0F0E05D
S11311E0EC0FFD1FE20FF31F608182E690E0F0D266
S11311F040E064E083E290E0EED29EC09801369530
S1131200279536952795ABE7B4E1EFD4AC01569515
S113121047959A01ADECBCECE8D4969587959695E4
S11312208795969587959C01220F331F880F991FE8
S1131230880F991F880F991F820F931F9A01281BEB
S1131240390BE1E0F0E0EC0FFD1FE20FF31F6081CA
S113125082E690E0BDD240E065E083E290E0BBD25C
S11312606BC09801ADECBCECC0D4AC01569547956D
S113127056954795569547959A01B7D4969587956F
S113128096958795969587959C01220F331F880F15
S1131290991F880F991F880F991F820F931F9A0116
S11312A0281B390BE1E0F0E0EC0FFD1FE20FF31F08
S11312B0608182E690E08CD240E066E083E290E0D8
S11312C08AD23AC09801ADECBCEC8FD49695879540
S11312D096958795969587959C01220F331F880FC5
S11312E0991F880F991F880F991F820F931F9801C8
S11312F0281B390BE1E0F0E0EC0FFD1FE20FF31FB8
S1131300608182E690E064D240E067E083E290E0AE
S113131062D212C080915503882329F060E882E6E6
S113132090E056D204C060E082E690E051D240E002
S113133065E083E290E04FD22B960FB6F894DEBFBF
S11313400FBECDBFDF91CF911F910F910895909360
S1131350A2028093A10208958091A1029091A20219
S1131360CECE089541E065E087E390E017D241E0F6
S113137066E087E390E012D241E067E087E390E023
S11313800DD261E084E390E000C20895682F88E301
S113139090E01EC20895682F85E390E019C2089575
S11313A0809156038F7D80935603F0CF08958091EA
S11313B05603806280935603E9CF089580915603C3
S11313C08F7B80935603E2CF089580915603806803
S11313D080935603DBDF8FE99FE00197F1F700C0AC
S11313E000000895D8CF0895809156038F77809395
S11313F05603CCDF8FE99FE00197F1F700C00000AE
S11314000895CF93C82FCCDFD9DFDFDF8C2FEADF3D
S1131410EBDFCF910895A6DF8FE59AEE0197F1F700
S113142000C0000088E3EDDF8FE19EE40197F1F74F
S113143000C0000088E3E5DF8FE99FE00197F1F742
S113144000C0000088E3DDDF88E3DBDF88E0D9DF6C
S113145081E0D7DF86E0D5DF8CE0D3CF0895CF934A
S1131460C82FA5DFABDFB1DF8C2FBCDFBDDFCF9191
S113147008950F931F93CF93DF938C01C0E0D0E0C6
S113148002C0EDDF2196F801EC0FFD1F8081811170
S1131490F8CFDF91CF911F910F9108956F708170F4
S11314A090E4899F600D1124862F8058AACF089557
S11314B0CF93DF93EA01F2DFCE01DBDFDF91CF913F
S11314C0089581E09ECF0895D3C108956091560395
S11314D06860609356038EE4F7CF089560915603D5
S11314E06E7F609356038EE4EFCF089560915603A8
S11314F06160609356038EE4E7CF089560915603CC
S11315006D7F609356038EE4DFCF08956091560398
S11315106460609356038EE4D7DF8FE99FE0019700
S1131520F1F700C000000895609156036B7F60934B
S113153056038EE4C9DF8FE99FE00197F1F700C0FD
S113154000000895CF93C82FE1DF609156036F70B8
S1131550C07F6C2B8EE4B8DFE7DFCF910895CF9383
S1131560C82FF0DF8C2F8295807FECDFCF91089518
S1131570CF93C82FB3DFC2DF8C2FF1DFCF91089553
S1131580109256034CD18FE59AEE0197F1F700C003
S11315900000A4DFB3DF88E3D5DF8FE19EE4019789
S11315A0F1F700C0000088E3CDDF8FE99FE00197E9
S11315B0F1F700C0000088E3C5DF88E2C3DF88E2FA
S11315C0D7DF88E0D5DF81E0D3DF86E0D1DF8CE0B0
S11315D0CFDF7CCF0895CF93C82F88DF8FDF8C2F88
S11315E0BEDFCF9108950F931F93CF93DF938C01A8
S11315F0C0E0D0E002C0EFDF2196F801EC0FFD1F40
S113160080818111F8CFDF91CF911F910F910895BF
S11316106F70817090E4899F600D1124862F80582B
S1131620A7CF0895CF93DF93EA01F2DFCE01DBDF8A
S1131630DF91CF91089581E09BCF089560E0C8C009
S11316400895C6C0089541E063E082E290E0A6D028
S1131650EAE8F0E0808183608083ABE8B0E08C91BD
S113166082608C938081886180830895CF93C62F94
S11316709C0140E050E060E970ED83E090E099D295
S113168021503109E0E8F0E03183208380819181A9
S11316906C2F70E067D27093870060938600CF91BF
S11316A00895EBE8F0E08081806880830895EBE89A
S11316B0F0E080818F738083089540E062E081E3ED
S11316C090E06CD041E063E081E390E067D0EAE62B
S11316D0F0E080818063808389B7846089BF109241
S11316E05703089541E063E082E390E074D080E51D
S11316F08A95F1F740E063E082E390E06CC00895DE
S11317001DBC1CBC8EB583608EBD08958EB5887FCC
S11317108EBD0895811109C0EAE6F0E080818F7CD6
S113172080838081806280830895EAE6F0E080818E
S11317308F7C808380818063808308956CB57DB5C0
S113174080E090E01ED126E933E44BE85DE37FD1ED
S1131750ECD0CB01089580915703089581E08093E4
S113176057030895829B04C0CBDF80E0D3CF089554
S1131770CDDFF4DF81E0CECF0895109257030895B2
S11317800E9408010E941901FDCF613021F42FEF5E
S1131790FC0120830895FC0110820895FC0141306E
S11317A059F4208181E090E002C0880F991F6A9566
S11317B0E2F7822B80830895908121E030E002C01B
S11317C0220F331F6A95E2F7209529232083089579
S11317D0FC0160830895FC01413059F4208181E0CB
S11317E090E002C0880F991F6A95E2F7822B8083EC
S11317F00895908121E030E002C0220F331F6A95E2
S1131800E2F72095292320830895FC01808190E04C
S113181002C0959587956A95E2F78170089581B322
S1131820836081BB88E480937000109271000895F6
S113183084EA80937400809174008823E4F7089507
S11318408093730084E880937400809174008823EB
S1131850E4F708958093730084E880937400809182
S113186074008823E4F7089584E98093740008954C
S1131870CF93DF93D82FC62FDBDF8D2FE1DF8C2FA3
S1131880E9DFF2DFDF91CF91089583B7856083BFED
S113189087B7816087BF82E882BF089585B583607A
S11318A085BD85B5886085BD87B7806887BF89EFAA
S11318B083BD08959CB19A3091F4E091A302AE2FB8
S11318C0B0E0A75ABC4F9C93EF5FF0E0E75AFC4F9F
S11318D010821092A30281E08093580308958091AE
S11318E0A302E82FF0E0E75AFC4F90838F5F8093C8
S11318F0A3020895109258038AB188618AB98BB102
S113190082608BB98AB180688AB98FEC89B90895ED
S11319105D9BFECF8CB90895809158030895109271
S11319205803089589E593E0089570D088F09F578F
S113193090F0B92F9927B751A0F0D1F0660F771F17
S1131940881F991F1AF0BA95C9F712C0B13081F0F7
S113195077D0B1E0089574C0672F782F8827B85FD7
S113196039F0B93FCCF3869577956795B395D9F758
S11319703EF490958095709561957F4F8F4F9F4F62
S11319800895E89409C097FB3EF49095809570956E
S113199061957F4F8F4F9F4F9923A9F0F92F96E9B7
S11319A0BB279395F695879577956795B795F1112C
S11319B0F8CFFAF4BB0F11F460FF1BC06F5F7F4FC9
S11319C08F4F9F4F16C0882311F096E911C07723DB
S11319D021F09EE8872F762F05C0662371F096E8E4
S11319E0862F70E060E02AF09A95660F771F881FB3
S11319F0DAF7880F9695879597F9089557FD9058CB
S1131A00440F551F59F05F3F71F04795880F97FBBE
S1131A10991F61F09F3F79F0879508951216130678
S1131A201406551FF2CF4695F1DF08C016161706A7
S1131A301806991FF1CF86957105610508940895DC
S1131A40E894BB2766277727CB0197F908950BD035
S1131A5078C069D028F06ED018F0952309F05AC0E8
S1131A605FC01124EECFCADFA0F3959FD1F3950F89
S1131A7050E0551F629FF001729FBB27F00DB11D0E
S1131A80639FAA27F00DB11DAA1F649F6627B00D9E
S1131A90A11D661F829F2227B00DA11D621F739F87
S1131AA0B00DA11D621F839FA00D611D221F749F95
S1131AB03327A00D611D231F849F600D211D822FDC
S1131AC0762F6A2F11249F5750408AF0E1F0882323
S1131AD04AF0EE0FFF1FBB1F661F771F881F915030
S1131AE05040A9F79E3F510570F014C0AACF5F3F44
S1131AF0ECF3983EDCF3869577956795B795F79563
S1131B00E7959F5FC1F7FE2B880F911D96958795EA
S1131B1097F9089597F99F6780E870E060E0089569
S1131B209FEF80EC089500240A94161617061806F1
S1131B300906089500240A941216130614060506CD
S1131B400895092E0394000C11F4882352F0BB0F5E
S1131B5040F4BF2B11F460FF04C06F5F7F4F8F4FC1
S1131B609F4F0895AA1BBB1B51E107C0AA1FBB1FAF
S1131B70A617B70710F0A61BB70B881F991F5A9515
S1131B80A9F780959095BC01CD01089597FB072E88
S1131B9016F4009406D077FD08D0E4DF07FC05D0E6
S1131BA03EF4909581959F4F0895709561957F4F70
S1131BB00895052E97FB16F400940FD057FD05D019
S1131BC023D007FC02D046F408C0509540953095C8
S1131BD021953F4F4F4F5F4F089590958095709595
S1131BE061957F4F8F4F9F4F0895A29FB001B39F80
S1131BF0C001A39F700D811D1124911DB29F700D12
S1131C00811D1124911D0895A1E21A2EAA1BBB1B4C
S1131C10FD010DC0AA1FBB1FEE1FFF1FA217B307B4
S1131C20E407F50720F0A21BB30BE40BF50B661FCA
S1131C30771F881F991F1A9469F76095709580958E
S1131C4090959B01AC01BD01CF010895FB01DC011E
S1131C508D91019080190110D9F3990B08950F9378
S1131C601F93CF93DF93E091BF03F091C0032381CF
S1131C7021FF1BC08C01D0E0C0E0F80181918F01ED
S1131C806091BF037091C003DB011896ED91FC9144
S1131C901997882331F00995892B79F3DFEFCFEF7A
S1131CA0ECCF8AE00995892B19F08FEF9FEF02C0E2
S1131CB08D2F9C2FDF91CF911F910F9108950F933A
S1131CC01F93CF93DF93CDB7DEB72E970FB6F8945B
S1131CD0DEBF0FBECDBF0D891E8986E08C831A83BB
S1131CE009838FEF9FE79E838D83AE01475E5F4F2D
S1131CF06F89788DCE01019610D0EF81F885E00FC1
S1131D00F11F10822E960FB6F894DEBF0FBECDBF22
S1131D10DF91CF911F910F9108952F923F924F928F
S1131D205F926F927F928F929F92AF92BF92CF9267
S1131D30DF92EF92FF920F931F93CF93DF93CDB770
S1131D40DEB72B970FB6F894DEBF0FBECDBF6C0184
S1131D507B018A01FC0117821682838181FFBFC146
S1131D60CE0101963C01F6019381F70193FD859123
S1131D7093FF81917F01882309F4ADC1853239F441
S1131D8093FD859193FF81917F01853221F4B60102
S1131D9090E0D6D1E8CF912C212C312CFFE1F31522
S1131DA0D8F08B3279F038F4803279F08332A1F4B0
S1131DB0232D20611DC08D3261F0803369F4232D01
S1131DC0216016C0832D8260382EE32DE4603E2E00
S1131DD02AC0F32DF8601DC037FC2DC020ED280F5C
S1131DE02A3040F08E32B9F436FC75C1232D2064BC
S1131DF0322E19C036FE06C08AE0989E200D1124AA
S1131E00922E11C0EAE02E9E200D1124222EF32DD5
S1131E10F0623F2E08C08C3621F4832D8068382E62
S1131E2002C0883641F4F70193FD859193FF8191B7
S1131E307F018111B3CF982F9F7D9554933028F45F
S1131E400C5F1F4F9FE399830DC0833631F08337B6
S1131E5071F0833509F055C020C0F8018081898371
S1131E600E5F1F4F88248394912C530112C02801C4
S1131E70F2E04F0E511CF801A080B18036FE03C081
S1131E80692D70E002C06FEF7FEFC5014ED14C01A8
S1131E908201F32DFF773F2E15C0280122E0420E68
S1131EA0511CF801A080B18036FE03C0692D70E09A
S1131EB002C06FEF7FEFC5012DD14C01F32DF06807
S1131EC03F2E820133FC19C0822D90E088169906BA
S1131ED0A0F4B60180E290E033D12A94F5CFF50165
S1131EE037FC859137FE81915F01B60190E028D1DE
S1131EF021102A9421E0821A91088114910479F71F
S1131F00E1C0843611F0893639F5F80137FE07C08F
S1131F1060817181828193810C5F1F4F08C0608151
S1131F207181072E000C880B990B0E5F1F4FF32D48
S1131F30FF763F2E97FF09C0909580957095619527
S1131F407F4F8F4F9F4FF0683F2E2AE030E0A30170
S1131F5033D1882E861844C0853731F4232D2F7E43
S1131F60B22E2AE030E025C0932D997FB92E8F360A
S1131F70C1F018F4883579F0AEC0803719F088378D
S1131F8021F0A9C0E92FE061BE2EB4FE0DC0FB2DE7
S1131F90F460BF2E09C034FE0AC0292F2660B22E79
S1131FA006C028E030E005C020E130E002C020E1B6
S1131FB032E0F801B7FE07C06081718182819381AC
S1131FC00C5F1F4F06C06081718180E090E00E5F5E
S1131FD01F4FA301F1D0882E8618FB2DFF773F2ECB
S1131FE036FE0DC0232D2E7FA22E891458F434FE04
S1131FF00BC032FC09C0832D8E7EA82E05C0B82CE0
S1132000A32C03C0B82C01C0B92CA4FE0FC0FE0140
S1132010E80DF11D8081803321F49A2D997EA92E3B
S113202009C0A2FE06C0B394B39404C08A2D867876
S113203009F0B394A3FC10C0A0FE06C0B21480F44F
S1132040280C922C9B180DC0B21458F4B60180E2EF
S113205090E076D0B394F8CFB21418F42B1802C0E1
S1132060982C212CA4FE0FC0B60180E390E068D028
S1132070A2FE16C0A1FC03C088E790E002C088E578
S113208090E0B6010CC08A2D867851F0A1FE02C002
S11320908BE201C080E2A7FC8DE2B60190E050D053
S11320A0891430F4B60180E390E04AD09A94F8CFD2
S11320B08A94F301E80DF11D8081B60190E040D0CF
S11320C08110F6CF222009F44ECEB60180E290E0D2
S11320D037D02A94F7CFF6018681978102C08FEF1B
S11320E09FEF2B960FB6F894DEBF0FBECDBFDF91E6
S11320F0CF911F910F91FF90EF90DF90CF90BF9001
S1132100AF909F908F907F906F905F904F903F9093
S11321102F900895FC010590615070400110D8F78C
S1132120809590958E0F9F1F0895FC01615070401B
S113213001900110D8F7809590958E0F9F1F0895F8
S11321400F931F93CF93DF93FB01238121FD03C0E2
S11321508FEF9FEF2CC022FF16C046815781248148
S113216035814217530744F4A081B1819D012F5F4B
S11321703F4F318320838C93268137812F5F3F4FDC
S11321803783268314C08B01EC01FB010084F185A5
S1132190E02D0995892BE1F6D80116968D919C9135
S11321A01797019617969C938E931697CE01DF91FD
S11321B0CF911F910F910895FA01AA27283051F168
S11321C0203181F1E8946F936E7F6E5F7F4F8F4F64
S11321D09F4FAF4FB1E03ED0B4E03CD0670F781FC3
S11321E0891F9A1FA11D680F791F8A1F911DA11DA8
S11321F06A0F711D811D911DA11D20D009F46894E1
S11322003F912AE0269F11243019305D3193DEF688
S1132210CF010895462F4770405D4193B3E00FD03E
S1132220C9F7F6CF462F4F70405D4A3318F0495D29
S113223031FD4052419302D0A9F7EACFB4E0A6950C
S11322409795879577956795BA95C9F7009761052E
S1132250710508959B01AC010A2E06945795479584
S113226037952795BA95C9F7620F731F841F951F79
S10B2270A01D0895F894FFCFAE
S11322780000000200000000880C00000000023F7B
S1132288065B4F666D7D077F6780536D61727420AE
S1132298494F542046616E204F4E0A00536D6172B7
S11322A87420494F542046616E204F46460A004D1B
S11322B8616E75616C204D6F646520536C6F772077
S11322C853706565640A004D616E75616C204D6FCD
S11322D86465204D6964646C652053706565640A9F
S11322E8004D616E75616C204D6F646520466173A5
S11322F8742053706565640A004175746F204D6FCE
S113230864650A0054696D6572204D6F64650A003E
S113231854696D657220546869727479204D696EC8
S11323282055700A004D616E75616C004175746FBB
S11323380054696D6572005761726E696E67005367
S11323486D61727420494F542046616E002A536DA2
S113235861727420494F542046616E2A0025303238
S1132368643A253032643A2530326400536D617220
S11323787420494F542046616E204F4E00536D61BE
S1132388727420494F542046616E204F4646004DD2
S1132398616E75616C204D6F646520536C6F772096
S11323A85370656564004D616E75616C204D6F6492
S11323B865204D6964646C65205370656564004DDF
S11323C8616E75616C204D6F64652046617374207D
S11323D85370656564004175746F204D6F646500C2
S11323E854696D6572204D6F64650054696D65723A
S11323F820546869727479204D696E205570000004
S9030000FC
